:100000000C94C5000C94ED000C94ED000C94ED00E4
:100010000C94ED000C94ED000C94ED000C94ED00AC
:100020000C94ED000C94ED000C949F040C940E05C0
:100030000C94ED000C94ED000C94ED000C94ED008C
:100040000C94ED000C94ED000C94ED000C94ED007C
:100050000C94ED000C94ED000C94ED000C94550400
:100060000C94ED000C94ED000C94ED000C94ED005C
:100070000C94ED000C94ED000C94ED000C94ED004C
:100080000C94ED000C94ED000C94ED000C94ED003C
:100090000C9440070C94ED000C94ED000C94ED00D2
:1000A0000C94ED000C94ED000C94ED00080B000294
:1000B0000202000009040000010202000005240001
:1000C0001001052401010104240206052406000193
:1000D0000705810310004009040100020A00000026
:1000E00007050202400000070583024000000403E8
:1000F000090412010002EF0201409A23048000016A
:1001000001020301416461667275697400416461B2
:10011000667275697420466C6F72610000000000A1
:10012000250028002B002E003100040404040403E1
:100130000405020202020403020202020606060687
:1001400006060404020202040404080201104080AE
:1001500040102040804080080204018040201002AE
:1001600001108010204040200000000200090F0014
:1001700000030401000C000000000000000000006B
:1001800000000000000000008E0811241FBECFEF09
:10019000DAE0DEBFCDBF11E0A0E0B1E0E0EBF3E1DB
:1001A00002C005900D92A834B107D9F722E0A8E467
:1001B000B1E001C01D92A33AB207E1F710E0C5EC2F
:1001C000D0E004C02197FE010E94D009C43CD107B1
:1001D000C9F70E941A090C94D6090C940000FC017E
:1001E0008091D801882311F13FB7F89482E0809381
:1001F000E9002091F200822F90E01816190614F4FD
:1002000081E090E0882339F0289A44E64093D701B2
:100210004091F1004083222339F02091F200211116
:1002200003C02BE62093E8003FBF08958FEF9FEFB8
:1002300008952FB7F89483E08093E9009091E80047
:10024000892F807295FF04C09091F20080E4891B91
:100250002FBF08958091CF0181110DC082E080935E
:10026000CB0184E08093CC011092CE011092CD019D
:1002700081E08093CF018BEC91E00895282F30E04E
:10028000F901E859FE4F9491F901E75BFE4F849123
:10029000265D3E4FF9012491222309F430C09923B1
:1002A000E9F091509F30D0F4E92FF0E0E65AFE4F8C
:1002B0000C94D00988018C016901800184016E01D0
:1002C0006E016E018F01950199019D01A3016E01DF
:1002D000A701909180009F7790938000E22FF0E03B
:1002E000EE0FFF1FE45EFE4FA591B4919FB7F89407
:1002F000EC91611132C080958E238C939FBF08953D
:10030000909180009F7DE8CF90918000977FE4CF0F
:1003100094B59F7794BDE2CF94B59F7DFBCF90912C
:1003200090009F7790939000D9CF909190009F7DFF
:10033000F9CF90919000977FF5CF9091C0009F7773
:100340009093C000CBCF9091C0009F7DF9CF90914A
:10035000C200977F9093C200C1CF8E2BCECF3FB704
:10036000F8948091C7019091C801A091C901B09102
:10037000CA0126B5A89B05C02F3F19F00196A11D03
:10038000B11D3FBFBA2FA92F982F8827BC01CD01DF
:10039000620F711D811D911D43E0660F771F881F3D
:1003A000991F4A95D1F70895CF92DF92EF92FF926D
:1003B0000E94AF016B017C010E94AF016C197D09A5
:1003C0008E099F09683E734081059105A8F3FF904F
:1003D000EF90DF90CF9008954091BB015091BC0108
:1003E0002091B9013091BA0142175307B4F49091AA
:1003F000E8009570E1F39091E80092FD19C08093B8
:10040000F1008091BB019091BC0101968F739927F7
:10041000892B19F48EEF8093E8008091BB019091B5
:10042000BC0101969093BC018093BB0181E00895CB
:1004300080E00895DF92EF92FF920F931F93CF9386
:10044000DF93D82E8A01EB017B01E40EF51ECE1559
:10045000DF0559F0D7FE12C0FE0184910E94EC0125
:1004600021968111F4CF0FEF1FEFC801DF91CF91DB
:100470001F910F91FF90EF90DF9008958881EECF4C
:100480000F931F93CF93DF931F92CDB7DEB782E018
:10049000898342E450E06CEA70E080E80E941A022E
:1004A0000E942A01DC0112960D911C910115110583
:1004B00089F0D801ED91FC910280F381E02DBE011D
:1004C0006F5F7F4FC801099597FD04C0F801008553
:1004D0001185ECCF89810F90DF91CF911F910F9102
:1004E0000895615030F02091F100FC0120830196C5
:1004F000F8CF289A84E68093D70108958F929F922F
:10050000AF92BF92CF92DF92EF92FF920F931F9321
:10051000CF93DF936C017B018A0180910B018823CB
:1005200009F458C08091D801882309F453C0809100
:10053000BF0180FF05C08091E00082608093E000F1
:10054000E801B12C8AEFA82E93E0892E2AE3922E9F
:10055000209711F4BB20B9F10E941901811106C046
:10056000AA94AA20B9F10E94D401F2CF8C171D06DB
:1005700011F00CF08C2F9FB7F8948092E900209135
:10058000E80025FD02C09FBFE3CF282F30E0C21B4B
:10059000D30BF701815020F041914093F100FACF45
:1005A000E20EF31EBB2021F09092E800B12CEBCFBD
:1005B0008091E80085FDE7CF9092E800BB24B394DA
:1005C000209709F3F3CF5D9A84E68093BE0110165D
:1005D00011063CF081E090E0F6019383828310E005
:1005E00000E0C801DF91CF911F910F91FF90EF9034
:1005F000DF90CF90BF90AF909F908F900895CF9352
:10060000DF931F92CDB7DEB76983DC01ED91FC91DA
:100610000280F381E02D41E050E0BE016F5F7F4F2B
:1006200009950F90DF91CF91089583E08093E900C1
:100630008091F200882319F08AE38093E8000895FE
:100640000E94190190E00895CF93DF931F92CDB7D8
:10065000DEB7FC018485958597FD08C02FEF3FEF3D
:10066000358724870F90DF91CF910895CE010196B1
:100670000E94EF00019719F4898190E0F3CF8FEF8A
:100680009FEFF0CF0F931F93CF93DF931F92CDB7C0
:10069000DEB78C01FC018485958597FF0BC0CE01E8
:1006A00001960E94EF00019771F4898190E0F801B2
:1006B00095878487F801848595850F90DF91CF9188
:1006C0001F910F9108958FEF9FEFF1CFFC0184856B
:1006D000958597FD0BC09FB7F89482E08093E90061
:1006E0008091F2009FBF90E0019608959FB7F89423
:1006F00082E08093E9008091F2009FBF90E008952E
:100700002FB7F8948091C3019091C401A091C501C5
:10071000B091C6012FBF089520916F01260F332796
:10072000331F21323105ECF420919301FC0190E05C
:1007300080E0243069F082E00895A0916F0121915A
:10074000AC01415B5E4FA40FB52FB11D2C930196F8
:10075000861798F380916F01680F60936F0180E0B6
:10076000089581E0089508958FEF9FEF08958FEF2A
:100770009FEF08958091480190E0919581959109AE
:100780000895CF93DF93CB01EA01642F0E948C037D
:10079000CE01DF91CF910895CF93DF931F92CDB714
:1007A000DEB7698361E0CE0101960E948C0381E08F
:1007B00090E00F90DF91CF91089590E080E0089550
:1007C0001F93CF93DF9385ED8093BC0080914B0105
:1007D00090914C01A0914D01B0914E010796A11D41
:1007E000B11D23E0B695A795979587952A95D1F7E2
:1007F0002091BC0024FD03C01092930152C040918F
:100800004B0150914C0160914D0170914E01452B6F
:10081000462B472B69F30097A105B10541F02AE16A
:100820002A95F1F700C00197A109B109E1CF8091A4
:100830004A01C1E0C0934901882399F1D091B800E1
:100840001091BA008091BC008A7B8093BC0060E06C
:1008500082E00E943E0160E083E00E943E0110922F
:100860009301C09395011092940161E082E00E948F
:100870003E0161E083E00E943E018091B9008E7FDD
:100880008093B9008091B9008D7F8093B90080E298
:100890008093B80085E48093BC001093BA00D09395
:1008A000B800DF91CF911F9108951F920F920FB65C
:1008B0000F9211242F933F938F939F93AF93BF93E6
:1008C0008091C3019091C401A091C501B091C6016E
:1008D0003091C20126E0230F2D3758F50296A11D55
:1008E000B11D2093C2018093C3019093C401A093D2
:1008F000C501B093C6018091C7019091C801A09134
:10090000C901B091CA010196A11DB11D8093C70113
:100910009093C801A093C901B093CA01BF91AF9150
:100920009F918F913F912F910F900FBE0F901F902D
:10093000189529E8230F0396A11DB11DD2CF1F9250
:100940000F920FB60F9211248F939F938091E10025
:100950009091E100937F9093E10083FF0FC010928C
:10096000E90091E09093EB001092EC0092E39093F9
:10097000ED001092D80198E09093F00082FF22C021
:1009800093E09093E9009091F200992319F09AE393
:100990009093E8009091BE01992341F09091BE019F
:1009A00091509093BE01911101C05D989091D70133
:1009B000992341F09091D70191509093D7019111D3
:1009C00001C0289884FF18C08091E2008E7E81606B
:1009D0008093E2008091E1008F7E8093E10080911E
:1009E000BF018E7E80618093BF019F918F910F9098
:1009F0000FBE0F901F90189580FFF7CF8091E200F7
:100A00008E7E80618093E2008091E1008E7E8093F3
:100A1000E1008091BF018E7E8160E5CF1F920F9231
:100A20000FB60F921124CF92DF92EF92FF920F93A5
:100A30001F932F933F934F935F936F937F938F9366
:100A40009F93AF93BF93EF93FF93CF93DF93CDB774
:100A5000DEB76C97DEBFCDBF1092E9008091E80051
:100A600083FF25C068E0CE0145960E94710282EFA7
:100A70008093E8008D8987FF39C09091E80090FF4E
:100A8000FCCF982F907609F034C19E894F89588DFC
:100A90002F89F88C911131C0803861F58091C001A7
:100AA0008093F1001092F1008EEF8093E8006C9635
:100AB0000FB6F894DEBF0FBECDBFDF91CF91FF918F
:100AC000EF91BF91AF919F918F917F916F915F91C6
:100AD0004F913F912F911F910F91FF90EF90DF90D9
:100AE000CF900F900FBE0F901F9018959EEF909390
:100AF000E800C7CF1092F100D5CF913059F48111A1
:100B0000D3CF4130510581F68091C0018D7F809314
:100B1000C001CACF933049F48111C6CF413051058D
:100B200019F68091C0018260F2CF953041F4809136
:100B3000E80080FFFCCF20682093E300B5CF96301B
:100B400009F0A9C00B8D1C8D22E01092E9001092D3
:100B5000BC011092BB01F2122EC01092BA01109289
:100B6000B9010E9440021F8299E09983FA8291E0C4
:100B70009E8390EA98879AEF99872091BB013091E4
:100B8000BC01275F3F4F3C832B838D831092E9008C
:100B90001092BC011092BB011093BA010093B901ED
:100BA00049E050E0BE016F5F7F4F80E00E941A0273
:100BB0000E94400279CF1093BA010093B9010E94BC
:100BC0002A01DC0112960D911C910115110509F401
:100BD00051C1D801ED91FC910480F581E02DBE0159
:100BE0006B5E7F4FC8010995009709F03EC1F8017F
:100BF00000851185EACFF3E0FF120EC08F898823AC
:100C000009F440C0823061F440E86EE08DE091E08C
:100C10000E945B08811148CF81E28093EB0047CFAF
:100C2000813029F440E868E084E091E0F1CF83303E
:100C300099F70E942A01DC011296ED90FC908E013A
:100C40000F5F1F4F6801E114F10479F0D701ED91B6
:100C5000FC910680F781E02DB801C7010995080FC6
:100C6000111DF701E084F184EECFD8011C92F6014A
:100C700001900020E9F73197BF016C197D0940E030
:100C8000C601C6CF6EEE70E0FB01449150E080E8F3
:100C90000E941A0209CF973009F4BECF983021F490
:100CA00081E08093F10000CF993009F0FDCE837090
:100CB00009F0B2CFEDE0F1E081E031E096E321917F
:100CC000222371F08093E9003093EB00DF0111974C
:100CD0002C912093EC009093ED008F5F873079F793
:100CE0008EE78093EA001092EA008F898093D80102
:100CF000DBCE8B8D9C8D1092E9001092BC0110927E
:100D0000BB019093BA018093B901898D811192C082
:100D10008E899D89913A49F4813209F07DCF47E06F
:100D200050E064E071E080E0B3CF913209F074CF1D
:100D3000833269F48F89988DB0E0A0E08093000140
:100D400090930101A0930201B0930301ADCE8032D4
:100D500069F48091E80082FFFCCF67E084E091E0D5
:100D60000E9471028BEF8093E8009ECE823209F0E0
:100D70009BCE8F8980930B01EEEFFFE785919491D5
:100D80008B3F9C4D51F1E0E0F8E08091040190919F
:100D90000501A0910601B0910701803B9440A10597
:100DA000B105F1F480910B0180FD1AC0EE3F8AE09D
:100DB000F80789F587E797E7918380838091600042
:100DC0008093BD0188E19BE00FB6F894A8958093CD
:100DD00060000FBE9093600067CEEEEFFAE0D5CFD3
:100DE000808191818737974709F05ECEA8958091E1
:100DF00060008861809360008091BD0180936000F5
:100E0000EE3F2AE0F20789F08091FE0A9091FF0AF6
:100E10009183808349CE808191818737980751F2F1
:100E20009093FF0A8093FE0AC5CF1092FF0A10929A
:100E3000FE0A3ACE0E942A01DC0112960D911C9105
:100E40000115110509F4E8CED801ED91FC9101904E
:100E5000F081E02DBE016B5E7F4FC80109958111C5
:100E600023CEF80100851185EBCF181619060CF476
:100E70001BCED2CEF1E0FF12BECE62EF70E004CF07
:100E80001F920F920FB60F9211242F933F934F93FF
:100E90005F936F937F938F939F93AF93BF93EF93E2
:100EA000FF938091B900887F803609F44AC0F0F53D
:100EB000883209F4A5C018F5803109F499C0B8F456
:100EC000882309F4F5C0883009F492C0FF91EF91AE
:100ED000BF91AF919F918F917F916F915F914F9152
:100EE0003F912F910F900FBE0F901F901895883152
:100EF00009F486C0803251F78093920114C0803487
:100F000009F49BC040F48033B9F38833F9F6809339
:100F1000920185ECAEC0803509F483C0883509F4B0
:100F200094C0883499F60E94E003D0CF883909F440
:100F30008AC038F5883729F050F4883611F08037A8
:100F400029F683E0809393011092910155C088386F
:100F500009F479C0803919F0803809F0B7CF809151
:100F60009101803208F06FC0E091910181E08E0F15
:100F7000809391018091BB00F0E0EF58FE4F808399
:100F80003BC0803B39F0D0F4803A09F477C0883A0E
:100F900009F09CCF84E0809393011092700110922D
:100FA0006F01F0E0E0E0099580916F0181110FC0C1
:100FB00081E080936F0110924F0109C0803C09F4D9
:100FC000A8CF883C09F4A5CF883B09F07FCFE091FA
:100FD000700181E08E0F80937001F0E0E15BFE4FC5
:100FE00080818093BB009091700180916F0129C036
:100FF0008091B8018093BB0085EC8093BC0066CFE4
:101000009091B7018091B601981758F5E091B7011A
:1010100081E08E0F8093B701F0E0EA56FE4F8081A9
:10102000E9CFE091B70181E08E0F8093B701809105
:10103000BB00F0E0EA56FE4F80839091B7018091AB
:10104000B6019817C8F285E8D8CFE091B70181E0E2
:101050008E0F8093B7018091BB00F0E0EA56FE4FFF
:1010600080838091950181115ECF81E0809394010E
:1010700084EA8093BC001092930128CF85EC809382
:10108000BC001092930180919101803230F4E09184
:101090009101F0E0EF58FE4F10826091910170E0F5
:1010A00081E791E0F0E0E0E00995109291010ECF28
:1010B0001092920138CFEF92FF920F931F93CF932C
:1010C000DF93F82E192FE62E042F81E0860F880F6C
:1010D0000E94EC0183E00E94EC01CF2DD12FEC0E99
:1010E000FD2EF11CCE15DF05B9F007FF13C0FE0180
:1010F00084910E94EC01182F80E00E94EC01812372
:1011000021968111EFCFDF91CF911F910F91FF9029
:10111000EF9008958881EDCF81E0F5CF0F931F9375
:10112000E9EDF1E01382128248EE53E060E070E0F6
:10113000448355836683778387E191E0918380833D
:101140008FEF9FEF95878487A4E7B2E013961C92F8
:101150001E92129714964D935D936D937C931797FF
:1011600089E291E011969C938E9387E391E09093AE
:101170002A0280932902E8E5F2E0138A128AB18BF1
:10118000A08B40E050E060EC7FE7408751876287AA
:1011900073874487558766877787EBE2F2E0168E80
:1011A000158E10A2178E11A212A213A214A215A2BC
:1011B00016A217A210A611A612A613A614A6148E84
:1011C00000E015E020E030E00083118322833383C8
:1011D00005E010E020E030E00483158326833783A8
:1011E00002E010E020E030E000871187228733879B
:1011F00014868FEF858716861786108A118A128AC1
:10120000138A148A158A168A178A108E118E128EE6
:10121000138EE0E8F2E0168A158AB48BA38B43871D
:101220005487658776874787508B618B728B1F91B8
:101230000F910895789484B5826084BD84B58160EF
:1012400084BD85B5826085BD85B5816085BD809191
:101250006E00816080936E00109281008091810009
:101260008260809381008091810081608093810001
:1012700080918000816080938000809191008260E5
:101280008093910080919100816080939100809182
:1012900090008160809390008091C1008460809371
:1012A000C1008091C10082608093C1008091C10023
:1012B00081608093C1008091C30081608093C300EE
:1012C0008091C00082608093C0008091C2008160E4
:1012D0008093C20080917A00846080937A0080912C
:1012E0007A00826080937A0080917A008E7F80936A
:1012F0007A0080917A00806880937A001092D801F9
:101300001092C0011092BF018091D700816080933C
:10131000D70080EA8093D80089B58F7E89BD89B5D2
:10132000826089BD09B400FEFDCF0E94D401809186
:10133000D8008F7C80618093D8008091E000807F0E
:101340008093E0008091E1008E7E8093E1008DE04B
:101350008093E200559A209A8FEF9FEF9093E601D9
:101360008093E501C0E0D0E011E08091C1018111DE
:1013700012C04AE050E069E371E089ED91E00E941B
:101380007E0242E050E064E471E089ED91E00E9469
:101390007E021093C101209741F30E940000E5CF27
:1013A000EE0FFF1F0590F491E02D0994F894FFCF04
:1013B000FFFFFFFF00E100000000000000C180818E
:1013C00000000000000000FF027E022003150366FB
:1013D000032403420300000000CC03C103DD03B378
:1013E00003BA03B703B40380034D656C6C612054EA
:0813F000657374000D0A000092
:00000001FF
